:060000000A128A11122809
:10000800FE00030EF0000408F1000A08F200831253
:1000180003137F08F3000A128A11692E0A128A1143
:10002800152883135D30FD000630FE00C130FF0047
:10003800523084000A128A11A7260A128A11A030A7
:100048008400C8300A128A11D6260A128A113C3056
:10005800840052300A128A11D626F701F801F901F4
:1000680083010A128A11652A831203132F08C70015
:100078002E08C6000230C007003003180130C1073F
:10008800003003180130C207003003180130C307DD
:100098003C09B0003D09B100B00A0319B10A400893
:1000A8003007B80041080318410A3107B90047086A
:1000B800803AB0005B08803A3002031D65285A0870
:1000C80046020318A728053083120313A000003046
:1000D800A1005308A3005208A2000A128A1175242D
:1000E8000A128A11831203132108A9002008A80004
:1000F8000330AA000030AB000A128A11DE250A126A
:100108008A11831203132908803AB0003908803A0B
:100118003002031D9128380828020318A7288312E3
:1001280003134708803AB0005708803A3002031D8D
:100138009F28560846020318A72883120313470866
:10014800D7004608D600831203135B08803AB00034
:100158004708803A3002031DB32846085A0203189C
:10016800C928831203135508803AB0004708803A1B
:100178003002031DC128460854020318C9288312F7
:1001880003134708D5004608D4008312031339081F
:10019800803AFF0080307F02031DD428FB303802EC
:1001A800031CFA29831203135B08803AB00047083E
:1001B800803A3002031DE22846085A020318FA2939
:1001C800831203134E08031DFA290530A0000030DE
:1001D800A1005308A3005208A2000A128A1175242C
:1001E8000A128A11831203132108A9002008A80003
:1001F8000330AA000030AB000A128A11DE250A1269
:100208008A11831203132908803AB0003908803A0A
:100218003002031D1129380828020318FA29013071
:1002280083120313B0003008CE003C09B0003D092A
:10023800B100B00A0319B10A40083007D2004108DA
:100248000318410A3107D3004308BF004208BE0023
:100258004108BD004008BC00510803195F29D101BD
:10026800B601B7013708803AFF0080307F02031DCE
:100278003F290A30360203185F2983120313360810
:10028800B0003007B43E8400520883138000840A0B
:10029800530880000130B6070318B70A0030B707C3
:1002A8003708803AFF0080307F02031D5D290A303D
:1002B8003602031C4129831203135C0803196A29B7
:1002C800DC010130B0003008D1000800B401B501EC
:1002D800BA01BB013B08803AFF0080307F02031D52
:1002E800772909303A020318B229831203133A080E
:1002F800B0003007023EB43E840083130008B1000A
:10030800840A0008B2003A08B3003307B43E8400F8
:1003180031088000840A320880003A08B0003007AB
:10032800B43E84000008B100840A0008B200310815
:10033800B4070318B50A3208B5070130BA0703181D
:10034800BB0A0030BB073B08803AFF0080307F02C1
:10035800031DB02909303A02031C792983120313BB
:10036800530883160313C700831203135208831616
:100378000313C600460883120313B4070318B50A0B
:1003880083160313470883120313B5070A30A00026
:100398000030A1003508A3003408A2000A128A110F
:1003A8001B250A128A11831203132108B50020089D
:1003B800B4003408A0003508A100A201A301003050
:1003C800A7000030A600EA30A5006030A4000A1299
:1003D8008A1184230A128A11831203132108C50083
:1003E8002008C4000130B0003008CF008312031386
:1003F8004708803AB0005B08803A3002031D062A9D
:100408005A08460203183C2A831203134E03031D9D
:100418003C2ACE015609B0005709B100B00A0319A9
:10042800B10A54083007CA0055080318550A31079D
:10043800CB000230A0000030A1004B08A3004A08FE
:10044800A2000A128A1175240A128A118312031350
:1004580056082007DA0057080318570A2107DB0057
:100468005B08D5005A08D4005B08D7005A08D600A4
:10047800831203133908803AFF0089307F02031D75
:10048800472AC5303802031C0800123083120313B0
:10049800DA000230DB000030D4000230D500003032
:1004A800D6000230D7004308BF004208BE0041080A
:1004B800BD004008BC000130B0003008DC00D101AC
:1004C80008000A128A113C260A128A110130862A6B
:1004D8000030A000A1000A128A118D250A128A1183
:1004E800831203132108C9002008C8000230882A93
:1004F8004908AF004808AE000A128A1138200A12CB
:100508008A11033083120313D8000030D900E12A7E
:100518004F03031DDD2ACF010230A0000030A100E7
:100528004508A3004408A2000A128A1175240A1279
:100538008A11831203132108CD002008CC008030D3
:100548000A128A11D0240A128A1102300A128A1158
:10055800B8250A128A11831203134D08A8004C0803
:10056800A7000A128A1113240A128A110B300A12E0
:100578008A11B8250A128A11C0300A128A11D024A9
:100588000A128A110D300A128A11B8250A128A1124
:10059800831203135308A8005208A7000A128A11ED
:1005A80013240A128A110B300A128A11B8250A126A
:1005B8008A1183120313D801D9015908003A031983
:1005C800E62AE12A5808003A0319E12A013A0319F0
:1005D8006C2A033A03197C2A013A03198C2AE12A66
:1005E800E12A2C30F4000130F5000A128A11542651
:1005F8000A128A1130300A128A117E260A128A11CA
:100608002C30F4000130F5000A128A1154260A121F
:100618008A1130300A128A117E260A128A112C3069
:10062800F4000130F5000A128A1154260A128A11C0
:1006380030300A128A117E260A128A112C30F400F0
:100648000130F5000A128A1154260A128A11203044
:100658000A128A117E260A128A112C30F4000130FF
:10066800F5000A128A1154260A128A110C300A124D
:100678008A11D0240A128A112C30F4000130F500B6
:100688000A128A1154260A128A1104300A128A118F
:10069800D0240A128A112C30F4000130F5000A1215
:1006A8008A1154260A128A1185300A128A11D02416
:1006B8000A128A112C30F4000130F5000A128A114E
:1006C80054260A128A1106300A128A11D0240A12F4
:1006D8008A112C30F4000130F5000A128A115426D0
:1006E8000A128A1101300A128A11D0240A128A11B8
:1006F8002C30F4000130F5000A128A115426080043
:1007080083120313A901A31F962BA009A109A2090B
:10071800A309A00A0319A10A0319A20A0319A30A23
:10072800A901A90AA71FA72BA409A509A609A70912
:10073800A40A0319A50A0319A60A0319A70A01306E
:10074800F4007408A9060030AD000030AC00003099
:10075800AB000030AA002308220421042004031956
:10076800FC2BA801A80AA31BC72B0130F400031017
:10077800A00DA10DA20DA30DF40BBB2B0130F400AD
:100788007408A807B72B0130F4000310AA0DAB0DAD
:10079800AC0DAD0DF40BC92B23082702031DDE2B6E
:1007A80022082602031DDE2B21082502031DDE2B4D
:1007B80020082402031CEF2B2008A4022108031C94
:1007C800210FA5022208031C220FA6022308031CDE
:1007D800230FA7022A1401300310A30CA20CA10CAA
:1007E800A00CFF3E031DF02B0130A802031DC72BF0
:1007F800290803190A2CAA09AB09AC09AD09AA0AE8
:100808000319AB0A0319AC0A0319AD0A2D08A30092
:100818002C08A2002B08A1002A08A00008008312B7
:100828000313AB01AC012708280403194F2C0A3025
:10083800A0000030A1002808A3002708A2000A127F
:100848008A1159250A128A11831203132B08A90049
:100858002907A03E8400200883138000840A210809
:1008680080000A30A0000030A1002808A300270853
:10087800A2000A128A111B250A128A118312031375
:100888002108A8002008A7000130AB070318AC0A0C
:100898000030AC07172CFF30AB070318AC0AFF3049
:1008A800AC072C08AE002B08AD00AE1B08002D08C5
:1008B800A9002907A03E840083130008303EAA003F
:1008C8002A08D00050080A128A11CC260A128A1166
:1008D800FF3083120313AD070318AE0AFF30AE07CB
:1008E800592C83120313A501A11F812CA009A1096A
:1008F800A00A0319A10AA501A50AA31F8C2CA20905
:10090800A309A20A0319A30A0130F4007408A50672
:10091800A601A701200821040319C32CA401A40AD5
:10092800A11BA22C01300310A00DA10DFF3E031D39
:10093800972C0130F4007408A407942C013003109C
:10094800A60DA70DFF3E031DA32C21082302031D9E
:10095800AF2C20082202031CB82C2008A202210870
:10096800031CA303A302261401300310A10CA00C3E
:10097800FF3E031DB92C0130A402031DA22C25083B
:100988000319CB2CA609A709A60A0319A70A270841
:10099800A1002608A000080083120313A400791CF4
:1009A800D72C7910D82C061086102408A20022080B
:1009B800A500F030A2002208A5050F30A2002208E9
:1009C80086052508A2002208860406152C30F400A6
:1009D8000130F5000A128A1154260A128A1183126C
:1009E800031306112408A20003300310A20DFF3ED2
:1009F800031DF92C0310220DA3002308A500F030D5
:100A0800A2002208A5050F30A200220886052508A5
:100A1800A2002208860406152C30F4000130F500E7
:100A28000A128A115426831203130611080083122E
:100A38000313A501A601200821040319542DA401BC
:100A4800A40AA11B332D01300310A00DA10DFF3EF8
:100A5800031D282D0130F4007408A407252D01304A
:100A68000310A50DA60DFF3E031D342D21082302FA
:100A7800031D402D20082202031C492D2008A20234
:100A88002108031CA303A302251401300310A10CA1
:100A9800A00CFF3E031D4A2D0130A402031D332D77
:100AA8002608A1002508A0000800831203132008C7
:100AB80021040319882DF501F50AA11B6F2D0130BA
:100AC8000310A00DA10DFF3E031D642D0130F4009D
:100AD8007408F507612D21082302031D752D2008D0
:100AE8002202031C7D2D2008A2022108031CA30357
:100AF800A30201300310A10CA00CFF3E031D7E2DA4
:100B08000130F502031D6F2D2308A1002208A00063
:100B18000800831203132108803AFF0080307F0207
:100B2800031D982D0330200203189C2D01309D2DA4
:100B380000300138831203139F00E830F4000330BB
:100B4800F5000A128A11B4260A128A1183120313B5
:100B58001F151F19AD2D1E08A100831603131E08AB
:100B680083120313A000080083120313A800A60130
:100B7800A7012608280784000A128A111F260A12CC
:100B88008A11003A031908002608280784000A1267
:100B98008A111F260A128A110A128A11CC260A12F1
:100BA8008A11013083120313A6070318A70A00301D
:100BB800A707BD2DF501F60183120313281CEA2DA2
:100BC8002A08F5070318F60A2B08F6070130031060
:100BD800AA0DAB0DFF3E031DEB2D01300310A90C30
:100BE800A80CFF3E031DF22D28082904031DE02D43
:100BF8007608A9007508A80008008B120B110130AF
:100C080084000A128A111F260A128A117A3983125D
:100C1800031381000130F7070318F80A0030F807BA
:100C28007708780403191D2E0A128A11E626F7019F
:100C3800F8018B16080006308A000408840A820727
:100C48000034FF34423450344D343A342D34203497
:100C58002034203420342034003449342E344234B3
:100C68002E3449343A342D3420342034203400349E
:100C78008316031386010A128A11F5220A128A11B1
:100C88000A128A1191260A128A110A128A11ED266D
:100C98000A128A118B170B170A128A11DE2608000E
:100CA80083120313A001A101A001A101750821026B
:100CB800031D602E74082002031808000130A007E5
:100CC8000318A10A0030A1075A2E8B1A0B1D712E8A
:100CD8000A128A1101260A128A1173088312031351
:100CE800FF0072088A0071088400700E8300FE0EEF
:100CF8007E0E0900F600831203130610861076088C
:100D0800860006152C30F4000130F5000A128A110D
:100D18005426831203130611080083160313811245
:100D28000116811107308104013084000A128A11EA
:100D38001F267A398312031381000B1108007E08DD
:100D48008A007F088200A3260A128A118000840A7A
:100D580004087D0603190034FF0A0319FE0AA72EAA
:100D6800FF30F4070318F50AFF30F507740A031D6E
:100D7800B42E750A03190800B42E5834023400340E
:100D8800023400340234FF34FF34123402340134A4
:100D9800F600791483120313061476080A128A11CE
:100DA800D024080064008001840A04060319003472
:100DB8000406D72E831203139F0180308316031372
:100DC8009F000800013083120313D8000030D900B7
:060DD80008008B16080064
:02400E007A3FF7
:00000001FF
